{
  "_format": "hh-sol-artifact-1",
  "contractName": "OnchainRiddle",
  "sourceName": "contracts/OnchainRiddle.sol",
  "abi": [
    {
      "inputs": [],
      "stateMutability": "nonpayable",
      "type": "constructor"
    },
    {
      "anonymous": false,
      "inputs": [
        {
          "indexed": true,
          "internalType": "address",
          "name": "user",
          "type": "address"
        },
        {
          "indexed": true,
          "internalType": "bytes32",
          "name": "riddleHash",
          "type": "bytes32"
        },
        {
          "indexed": false,
          "internalType": "bool",
          "name": "correct",
          "type": "bool"
        },
        {
          "indexed": false,
          "internalType": "string",
          "name": "anwser",
          "type": "string"
        }
      ],
      "name": "AnswerAttempt",
      "type": "event"
    },
    {
      "anonymous": false,
      "inputs": [
        {
          "indexed": false,
          "internalType": "string",
          "name": "riddle",
          "type": "string"
        }
      ],
      "name": "RiddleSet",
      "type": "event"
    },
    {
      "anonymous": false,
      "inputs": [
        {
          "indexed": true,
          "internalType": "address",
          "name": "user",
          "type": "address"
        }
      ],
      "name": "Winner",
      "type": "event"
    },
    {
      "inputs": [],
      "name": "bot",
      "outputs": [
        {
          "internalType": "address",
          "name": "",
          "type": "address"
        }
      ],
      "stateMutability": "view",
      "type": "function"
    },
    {
      "inputs": [],
      "name": "isActive",
      "outputs": [
        {
          "internalType": "bool",
          "name": "",
          "type": "bool"
        }
      ],
      "stateMutability": "view",
      "type": "function"
    },
    {
      "inputs": [],
      "name": "riddle",
      "outputs": [
        {
          "internalType": "string",
          "name": "",
          "type": "string"
        }
      ],
      "stateMutability": "view",
      "type": "function"
    },
    {
      "inputs": [
        {
          "internalType": "string",
          "name": "_riddle",
          "type": "string"
        },
        {
          "internalType": "bytes32",
          "name": "_answerHash",
          "type": "bytes32"
        }
      ],
      "name": "setRiddle",
      "outputs": [],
      "stateMutability": "nonpayable",
      "type": "function"
    },
    {
      "inputs": [
        {
          "internalType": "string",
          "name": "_answer",
          "type": "string"
        }
      ],
      "name": "submitAnswer",
      "outputs": [],
      "stateMutability": "nonpayable",
      "type": "function"
    },
    {
      "inputs": [],
      "name": "winner",
      "outputs": [
        {
          "internalType": "address",
          "name": "",
          "type": "address"
        }
      ],
      "stateMutability": "view",
      "type": "function"
    }
  ],
  "bytecode": "0x6080604052348015600f57600080fd5b50336000806101000a81548173ffffffffffffffffffffffffffffffffffffffff021916908373ffffffffffffffffffffffffffffffffffffffff160217905550610f5c8061005f6000396000f3fe608060405234801561001057600080fd5b50600436106100625760003560e01c806310814c37146100675780631fdf55851461008557806322f3e2d4146100a157806356049a86146100bf578063bb3e3159146100dd578063dfbf53ae146100f9575b600080fd5b61006f610117565b60405161007c919061064a565b60405180910390f35b61009f600480360381019061009a91906107f5565b61013b565b005b6100a96102c8565b6040516100b6919061086c565b60405180910390f35b6100c76102db565b6040516100d49190610906565b60405180910390f35b6100f760048036038101906100f29190610928565b610369565b005b6101016105e3565b60405161010e919061064a565b60405180910390f35b60008054906101000a900473ffffffffffffffffffffffffffffffffffffffff1681565b60008054906101000a900473ffffffffffffffffffffffffffffffffffffffff1673ffffffffffffffffffffffffffffffffffffffff163373ffffffffffffffffffffffffffffffffffffffff16146101c9576040517f08c379a00000000000000000000000000000000000000000000000000000000081526004016101c0906109bd565b60405180910390fd5b600360149054906101000a900460ff1615610219576040517f08c379a000000000000000000000000000000000000000000000000000000000815260040161021090610a29565b60405180910390fd5b81600190816102289190610c5f565b50806002819055506001600360146101000a81548160ff0219169083151502179055506000600360006101000a81548173ffffffffffffffffffffffffffffffffffffffff021916908373ffffffffffffffffffffffffffffffffffffffff1602179055507fc7c868b4cedbfd1ed1d9ab41c080a195ed463c01132c6c4b4b8d7983d1c5c29c826040516102bc9190610906565b60405180910390a15050565b600360149054906101000a900460ff1681565b600180546102e890610a78565b80601f016020809104026020016040519081016040528092919081815260200182805461031490610a78565b80156103615780601f1061033657610100808354040283529160200191610361565b820191906000526020600020905b81548152906001019060200180831161034457829003601f168201915b505050505081565b600360149054906101000a900460ff166103b8576040517f08c379a00000000000000000000000000000000000000000000000000000000081526004016103af90610d7d565b60405180910390fd5b600073ffffffffffffffffffffffffffffffffffffffff16600360009054906101000a900473ffffffffffffffffffffffffffffffffffffffff1673ffffffffffffffffffffffffffffffffffffffff1614610449576040517f08c379a000000000000000000000000000000000000000000000000000000000815260040161044090610de9565b60405180910390fd5b6002548160405160200161045d9190610e45565b60405160208183030381529060405280519060200120036105185733600360006101000a81548173ffffffffffffffffffffffffffffffffffffffff021916908373ffffffffffffffffffffffffffffffffffffffff1602179055506000600360146101000a81548160ff0219169083151502179055503373ffffffffffffffffffffffffffffffffffffffff167f745c90b656b4aafe296c8ca35aeacfe56cb96c90e1d320e5da643fff1051b6c060405160405180910390a25b600160405160200161052a9190610edf565b604051602081830303815290604052805190602001203373ffffffffffffffffffffffffffffffffffffffff167f72b0b0001dfd776c2846f6a0d3cad2d9dd158c96f884b78910ed0ccd75e3d7d23373ffffffffffffffffffffffffffffffffffffffff16600360009054906101000a900473ffffffffffffffffffffffffffffffffffffffff1673ffffffffffffffffffffffffffffffffffffffff1614846040516105d8929190610ef6565b60405180910390a350565b600360009054906101000a900473ffffffffffffffffffffffffffffffffffffffff1681565b600073ffffffffffffffffffffffffffffffffffffffff82169050919050565b600061063482610609565b9050919050565b61064481610629565b82525050565b600060208201905061065f600083018461063b565b92915050565b6000604051905090565b600080fd5b600080fd5b600080fd5b600080fd5b6000601f19601f8301169050919050565b7f4e487b7100000000000000000000000000000000000000000000000000000000600052604160045260246000fd5b6106cc82610683565b810181811067ffffffffffffffff821117156106eb576106ea610694565b5b80604052505050565b60006106fe610665565b905061070a82826106c3565b919050565b600067ffffffffffffffff82111561072a57610729610694565b5b61073382610683565b9050602081019050919050565b82818337600083830152505050565b600061076261075d8461070f565b6106f4565b90508281526020810184848401111561077e5761077d61067e565b5b610789848285610740565b509392505050565b600082601f8301126107a6576107a5610679565b5b81356107b684826020860161074f565b91505092915050565b6000819050919050565b6107d2816107bf565b81146107dd57600080fd5b50565b6000813590506107ef816107c9565b92915050565b6000806040838503121561080c5761080b61066f565b5b600083013567ffffffffffffffff81111561082a57610829610674565b5b61083685828601610791565b9250506020610847858286016107e0565b9150509250929050565b60008115159050919050565b61086681610851565b82525050565b6000602082019050610881600083018461085d565b92915050565b600081519050919050565b600082825260208201905092915050565b60005b838110156108c15780820151818401526020810190506108a6565b60008484015250505050565b60006108d882610887565b6108e28185610892565b93506108f28185602086016108a3565b6108fb81610683565b840191505092915050565b6000602082019050818103600083015261092081846108cd565b905092915050565b60006020828403121561093e5761093d61066f565b5b600082013567ffffffffffffffff81111561095c5761095b610674565b5b61096884828501610791565b91505092915050565b7f4f6e6c7920626f742063616e2063616c6c20746869732066756e6374696f6e00600082015250565b60006109a7601f83610892565b91506109b282610971565b602082019050919050565b600060208201905081810360008301526109d68161099a565b9050919050565b7f526964646c6520616c7265616479206163746976650000000000000000000000600082015250565b6000610a13601583610892565b9150610a1e826109dd565b602082019050919050565b60006020820190508181036000830152610a4281610a06565b9050919050565b7f4e487b7100000000000000000000000000000000000000000000000000000000600052602260045260246000fd5b60006002820490506001821680610a9057607f821691505b602082108103610aa357610aa2610a49565b5b50919050565b60008190508160005260206000209050919050565b60006020601f8301049050919050565b600082821b905092915050565b600060088302610b0b7fffffffffffffffffffffffffffffffffffffffffffffffffffffffffffffffff82610ace565b610b158683610ace565b95508019841693508086168417925050509392505050565b6000819050919050565b6000819050919050565b6000610b5c610b57610b5284610b2d565b610b37565b610b2d565b9050919050565b6000819050919050565b610b7683610b41565b610b8a610b8282610b63565b848454610adb565b825550505050565b600090565b610b9f610b92565b610baa818484610b6d565b505050565b5b81811015610bce57610bc3600082610b97565b600181019050610bb0565b5050565b601f821115610c1357610be481610aa9565b610bed84610abe565b81016020851015610bfc578190505b610c10610c0885610abe565b830182610baf565b50505b505050565b600082821c905092915050565b6000610c3660001984600802610c18565b1980831691505092915050565b6000610c4f8383610c25565b9150826002028217905092915050565b610c6882610887565b67ffffffffffffffff811115610c8157610c80610694565b5b610c8b8254610a78565b610c96828285610bd2565b600060209050601f831160018114610cc95760008415610cb7578287015190505b610cc18582610c43565b865550610d29565b601f198416610cd786610aa9565b60005b82811015610cff57848901518255600182019150602085019450602081019050610cda565b86831015610d1c5784890151610d18601f891682610c25565b8355505b6001600288020188555050505b505050505050565b7f4e6f2061637469766520726964646c6500000000000000000000000000000000600082015250565b6000610d67601083610892565b9150610d7282610d31565b602082019050919050565b60006020820190508181036000830152610d9681610d5a565b9050919050565b7f526964646c6520616c726561647920736f6c7665640000000000000000000000600082015250565b6000610dd3601583610892565b9150610dde82610d9d565b602082019050919050565b60006020820190508181036000830152610e0281610dc6565b9050919050565b600081905092915050565b6000610e1f82610887565b610e298185610e09565b9350610e398185602086016108a3565b80840191505092915050565b6000610e518284610e14565b915081905092915050565b60008154610e6981610a78565b610e738186610e09565b94506001821660008114610e8e5760018114610ea357610ed6565b60ff1983168652811515820286019350610ed6565b610eac85610aa9565b60005b83811015610ece57815481890152600182019150602081019050610eaf565b838801955050505b50505092915050565b6000610eeb8284610e5c565b915081905092915050565b6000604082019050610f0b600083018561085d565b8181036020830152610f1d81846108cd565b9050939250505056fea26469706673582212207f965c4fecee2094b38f25ddd991193eb22f5f19381ed7fe677cbf10d2b9ade164736f6c634300081c0033",
  "linkReferences": {},
  "deployedLinkReferences": {}
}